:020000040800F2
:1000000078510020E101000827340008FD2800088D
:100010005533000831120008173D000800000000A9
:10002000000000000000000000000000490100087E
:1000300033120008000000008D010008E5360008BA
:10004000FB010008FB010008FB010008FB010008A0
:10005000FB010008FB010008FB010008FB01000890
:10006000FB010008FB010008FB010008FB01000880
:10007000FB010008FB010008FB010008FB01000870
:10008000FB010008FB010008FB010008FB01000860
:10009000FB010008FB010008FB010008FB01000850
:1000A000FB01000859370008FB010008FB010008AC
:1000B000FB010008FB010008FB010008FB01000830
:1000C000FB010008FB010008FB010008FB01000820
:1000D000FB010008213C0008FB010008A53C0008CA
:1000E000FB010008FB010008FB010008FB01000800
:1000F000FB010008FB010008FB010008FB010008F0
:10010000FB010008FB010008FB010008FB010008DF
:10011000FB010008FB010008FB010008FB010008CF
:10012000FB010008FB010008FB010008FB010008BF
:10013000DFF810D000F0B8FE00480047D54D0008A9
:10014000AFF3008078510020224B19680868B0E8AE
:10015000F00F80F30988BFF36F8F4FF0000080F33A
:1001600011884EF00D0E7047000000000648006830
:10017000006880F3088862B661B6BFF34F8FBFF3A3
:100180006F8F00DF00BF00BF08ED00E0EFF30980D4
:10019000BFF36F8F0F4B1A6820E9F00F106008B59E
:1001A0004FF0500080F31188BFF34F8FBFF36F8F74
:1001B00005F0F4FE4FF0000080F31188BDE8084020
:1001C00019680868B0E8F00F80F30988BFF36F8FF3
:1001D000704700BF74000020EFF3058070470000F7
:1001E0000648804706480047FEE7FEE7FEE7FEE7D1
:1001F000FEE7FEE7FEE7FEE7FEE7FEE7553700080D
:1002000031010008202A04DB203A21FA02F0002103
:10021000704721FA02F3D040C2F120029140084316
:100220001946704740EA01039B0703D009E008C95B
:10023000121F08C0042AFAD203E011F8013B00F8AB
:10024000013B521EF9D27047D2B201E000F8012BF7
:10025000491EFBD270470022F6E710B513460A4646
:1002600004461946FFF7F0FF204610BD0FB400B555
:100270008DB010A909900B9000914FF0FF300A90BB
:1002800000200C9005480690054807906A4609A88A
:100290000F9900F07DFC0DB05DF814FBAD0B00086C
:1002A000CB0B00082DE9FF4F087883B09946FF2853
:1002B00005D0491C2D2804D00024002008E000208F
:1002C0000BE00124F9E700EB800003EB4000491C40
:1002D0000B78FF2BF7D104B140420023029314782E
:1002E00019461D462D2C01D02B2C04D1521C2D2C2F
:1002F00013D000240294AA461478FF2C0FD00A25AC
:10030000A3FB057801FB05814FF0000C03FB0C11EA
:10031000521CE3194AEB0101EEE70124EAE78144AC
:1003200053EA010002D019F5C87F06DA03980021CC
:10033000C0E9001107B0BDE8F08F0025AE4E2F4692
:10034000DFF8B882184600F072FDCDE90001B9F17E
:10035000000002DAC9F1000400E004460023A74AC5
:100360001AEB030B42EB045A12E0E00707D02A46CF
:1003700033463846414600F0C0FA074688462A46CA
:1003800033461046194600F0B8FA05460E4664108A
:10039000002CEAD1DDE90001B9F1000F5A465346BD
:1003A00006DA00F0D5FC3A46434600F0D1FC05E001
:1003B00000F0A3FA3A46434600F09FFA029A0AB1C7
:1003C00081F00041039AC2E90001B3E72DE9FF4F34
:1003D0001F468DB0D7E901464FF0FF382E20454625
:1003E0004FF000090B90B9696D1C0E988847396A67
:1003F000824688470028F6D1BAF1FF3F0AD024F49C
:10040000D064002E11DDBAF12B0F08D0BAF12D0FF8
:100410000BD102E0404611B08DE744F48064B96925
:100420006D1C0E9888478246761E6946600501D588
:100430002D2000E02B208DF8000001F1010B0DF1C3
:10044000200809E0B9696D1C0E98884782460F980C
:1004500044F40074761E0560002E02DDBAF1300F00
:10046000F0D00B998A453ED144F0800406E00F9904
:10047000681CA9F1010944F400740860B9696D1C95
:10048000761E0E98884782463028F0D02BE00B99D4
:100490008A4505D1200603D444F08004761E18E076
:1004A000504603F0EFFE08B30DF11301761E44F43D
:1004B00000748B4508D2AAF130000BF8010B20061E
:1004C00007D5A9F1010003E0200602D409F10100DB
:1004D0008146A00502D50F99681C0860B9696D1C9A
:1004E0000E9888478246002ED1DC53E0002E51DD65
:1004F000BAF1650F02D0BAF1450F4BD1A00549D52D
:10050000B9696D1C24F44074761E0E9888478246A3
:10051000002E0CDD2B2804D0BAF12D0F07D144F4A6
:100520008074B9696D1C0E9888478246761EE00576
:1005300001D52D2100E02B2108F8011BCDF82C80DE
:1005400021E00DF12901761E44F4007488450CD297
:10055000AAF1300010F0FF0088F8000002D10B99DA
:10056000884509D908F1010806E0E00501D52448CD
:1005700001E042F20F708146B9696D1C0E98884700
:1005800082460F980560002E04DD504603F07AFE87
:100590000028D6D1F9690E988847FF208BF8000013
:1005A00088F800000020069007904B466A4608A98C
:1005B00006A8FFF777FEA00502D46FF001002AE736
:1005C00014F0240F0AD0E00714D1DDE906123868D0
:1005D000031D3B600068C0E900120BE0DDE9060185
:1005E00000F037FA0146E00704D13868021D3A608E
:1005F0000068016028460EE7000014400000F03F4C
:10060000F1D8FFFFF0B480EA0102D40F4200B2EB50
:10061000410F02D20246084611464A0042D0C30D9D
:10062000DDB2C1F3C752AD1A202D35DAC1F3160180
:1006300041F4000204B15242C5F1200602FA06F16B
:100640002A411044B3EBD05F23D0C4B1012DA0EBFD
:10065000C35009DCF0BC4FF0004202EAC352DBB2E7
:1006600000F5000000F0CBBA400000F1807000EB14
:10067000C350A0F1807040EAD170490009E04908F8
:1006800041EAC071A0EBC35000F50000400800EB48
:10069000C350F0BC00F0AABA6142012202EB410152
:1006A000001BF6E7F0BC704781F00041AAE780F03C
:1006B0000040A7E780EA010210B502F000434000C5
:1006C00022D04A001FD0010E01EB1261C0F3560088
:1006D000C2F3560240F4000042F40002A0FB0220E4
:1006E00000047F39140400D0401C50EA124001D4A9
:1006F0004000491EC2B20C0604EBD010401C40085A
:10070000802A02D003E0002010BD20F00100002963
:1007100000DA0020184310BD30B480EA010202F074
:10072000004530F0004221F0004013D090B1C30DDD
:10073000D40DC2F31601C0F31600E41A41F400010F
:1007400040F400027D34914201D3641C00E0490072
:10075000002C02DA30BC002070474FF40000002368
:10076000914201D3891A034340084FEA4101F7D16E
:1007700051B1914202D14FF0004105E002D24FF059
:10078000010101E06FF0010103EBC450284430BCCB
:1007900000F02CBA420005D0C0F3C7525242914239
:1007A00001DC0020704700EBC15070472DE9FE4F7F
:1007B000804681EA0300C00F0C46009021F0004102
:1007C00023F00045B8EB0200A94105D2404621467E
:1007D00090461C460B46024623F00040104347D08B
:1007E000270DC7F30A00C3F30A510290401A019083
:1007F00040286BDAC3F3130040F4801B0098924644
:1008000020B10023D2EB030A63EB0B0B019859468E
:10081000C0F14002504600F094F906460D4650469D
:100820005946019A00F09CF910EB08006141002440
:1008300087EA115284EAE7731A4340D0009A62B300
:10084000019A012A4FEA075215DC001B61EB0201F5
:100850004FF0004202EA0752CDE90042001C41F588
:10086000801132462B4600F025FA03B0BDE8F08F28
:1008700040462146F9E7001B61EB0201001C41F5EF
:10088000801300185B412018A2F5001747EB030105
:1008900040EAD570B6196D4111E06D084FEA360691
:1008A00045EAC0754FEA0752001B61EB0201001CCC
:1008B00041F5801149084FEA300000195141324694
:1008C0002B4603B0BDE8F04F00F0E5B900980122D7
:1008D00040000023D0EB020263EBE0730098214656
:1008E0004FEAE074B8EB000061EB0401E9E783F044
:1008F00000435BE781F0004158E72DE9FE4F81EAB4
:10090000030404F0004421F0004100944FF0000B78
:1009100023F0004350EA01045ED052EA03045BD0A6
:10092000C3F30A54C1F30A552C44A4F2F3340194DE
:10093000A0FB0254C1F3130141F48011C3F313036C
:1009400043F4801301FB024400FB034E840A970A20
:1009500044EA815447EA8357A4FB076802958D0A4D
:1009600005FB07854FEA932C04FB0C542705029DD9
:100970004FEA065847EA1637B5EB08056EEB070C49
:10098000870E920E47EA811742EA8312A7FB020103
:10099000B6EB0B0164EB00042B0D43EA0C335E183D
:1009A00044EB1C50DA465146E7FB0201C5F3130441
:1009B0004FEA0B3343EA14534FEA0432019C43EAF3
:1009C0000603A4F10C040294009CCDE900B400F0ED
:1009D00071F903B0BDE8F08F00200146F9E7C10FBF
:1009E00080EAE0700844CA079623002100F007B9A6
:1009F00096230022114600F002B900F0004220F0D8
:100A00000040C10DC0F3160040F400007F2901DA58
:100A100000207047962903DCC1F19601C84001E02F
:100A200096398840002AF4D04042704700F00042D6
:100A300030F000400AD0C10D01F56071C0F316001E
:100A400042EA0151C20840071143704700200146A5
:100A5000704701F0004330B421F0004150EA010238
:100A600006D00A0DA2F56072C1F31301002A02DC60
:100A700030BC00207047440F44EAC104C100E018B4
:100A800030BC00EBC25000F0B1B80000002801DB20
:100A9000C0F10040002901DBC1F1004181427047F3
:100AA000002801DBC0F10040002901DBC1F1004159
:100AB0008842704730B50B460146002020220124B1
:100AC00009E021FA02F59D4205D303FA02F5491B1C
:100AD00004FA02F52844151EA2F10102F1DC30BD32
:100AE0002DE9F05F0546002092469B468846064663
:100AF000814640241BE02846414647462246FFF7F0
:100B000081FB53465A46C01A914110D311461846EC
:100B1000224600F016F82D1A67EB01084F462246D0
:100B20000120002100F00DF817EB00094E41201EB6
:100B3000A4F10104DFDC484631462A464346BDE8BD
:100B4000F09F202A04DB203A00FA02F100207047CF
:100B50009140C2F1200320FA03F3194390407047FB
:100B6000202A06DBCB17203A41FA02F043EAE07371
:100B700006E041FA02F3D040C2F12002914008435E
:100B8000194670470268114413780160184670478F
:100B9000D16004495161044911620021116111467B
:100BA00000F09AB9850B0008CD0E0008426842B1EA
:100BB000016811F8013B23B1521EC0E9001218462A
:100BC00070470121C160881E704742685AB1C368EE
:100BD000016843B983688B4205D0491E521CC0E9A5
:100BE0000012002070474FF0FF3070470029A8BF67
:100BF0007047401C490008BF20F00100704710B446
:100C0000B0FA80FC00FA0CF050EA010404BF10BCFA
:100C1000704749B1CCF1200421FA04F411FA0CF127
:100C200018BF012121430843A3EB0C01CB1D4FEA60
:100C300000614FEA102042BF002010BC704700EB5B
:100C4000C35010440029A4BF10BC7047401C490089
:100C500008BF20F0010010BC704710B541000CD057
:100C6000C0F3C751962908DC7E2909DC06DB410266
:100C700004D000F0004040F07E5010BD002010BDB8
:100C8000C1F19604C4F1200100FA01F1E040FFF740
:100C9000ADFFA04010BD10B5141E73F1000408DABA
:100CA000401C41F1000192185B411A4301D120F030
:100CB000010010BD2DE9F04D92469B4611B1B1FAED
:100CC00081F202E0B0FA80F220329046FFF739FF5D
:100CD00004460F4640EA0A0041EA0B0153465A46D1
:100CE000084313D0114653EA010019D0C8F140025D
:100CF0005046FFF787FA05460E465046594642468B
:100D0000FFF71FFF084305D0012004E020463946C5
:100D1000BDE8F08D0020054346EAE0762C433743DA
:100D20000A986305E40AA0EB08000022FD0A44EAE1
:100D300047540A3002D500200146E9E701051019A1
:100D40006941DDE9084500196941BDE8F04DA2E7B8
:100D50002DE9F04D81EA030404F0004B21F0004539
:100D600014464FF0000A23F0004150EA050220D05B
:100D700054EA01021DD0C5F30A570246C5F3130316
:100D8000C1F31300C1F30A5640F4801543F48013F5
:100D9000A7EB0608101BD64608F2FD3873EB0500DA
:100DA00002D308F1010801E092185B41B8F1000F8D
:100DB00003DA00200146BDE8F08D00204FF48011D9
:100DC000064684460EE0171B73EB050705D3121B7E
:100DD00063EB050306434CEA010C49084FEA300077
:100DE00092185B4150EA0107EDD152EA030012D09C
:100DF00082EA040083EA0501084305D0101BAB41D9
:100E000006D20122002306E000224FF0004302E058
:100E10006FF0010253101AEB06004CEB085110EB77
:100E20000A0041EB0B01BDE8F04DFFF734BF0EB5F2
:100E300040F2334202920022CDE900221346FFF72E
:100E400039FF03B000BDC1F30A52C1F3130140F2F0
:100E5000FF3341F480119A4202DA002001467047C4
:100E600040F233439A42A2F2334202DC5242FFF78D
:100E7000C9B9FFF766BE000030B5041E71F1000469
:100E800004DB4FF00044404264EB0101141E73F197
:100E9000000405DB1C464FF00043524263EB0403A1
:100EA000994208BF904230BD064C074D06E0E0680D
:100EB00040F0010394E8070098471034AC42F6D3A1
:100EC000FFF73AF9406C0008606C0008C0B24FF4BC
:100ED000F05100F099B900002DE9F34F8BB04FF0BD
:100EE000000801F10C000C464FF0010B46460DF1D5
:100EF000080A01906269012101989047051E2DD0D2
:100F0000252D2CD0216A8847C0B162690121019842
:100F10009047216A88470028F7D1411E62690198ED
:100F2000904700E0761CA1690B988847216A8847A2
:100F30000028F7D1E1690B988847DBE7A1690B9896
:100F400088470746A84201D1761CD3E7E1690B9890
:100F500088477F1C02D1B8F1000F6FD047E100270E
:100F600062693D463946019890472A2804D1626952
:100F70000121019890470125DFF8889262690121DB
:100F800001989047A0F130010A290AD24F45E5DCCB
:100F900007EB870100EB4107303FDFD445F0100538
:100FA000ECE7E90601D46FF000476C280AD04C2822
:100FB00014D0682815D06A280DD074281CD07A283F
:100FC0001AD01DE062690121019890476C2802D077
:100FD00045F0040514E045F002050DE045F020055C
:100FE0000AE06269012101989047682802D045F023
:100FF000080505E045F40065626901210198904704
:10100000C4E9015765283DD019DC58287AD00CDC9A
:10101000452837D004DC252826D0412831D131E0BD
:1010200046282FD047282CD12CE05B2877D0612888
:1010300028D063287CD0642823D15AE0D1E06F28DF
:1010400048D008DC66281DD067281BD0692821D02D
:101050006E2816D127E0702845D0732868D07528EF
:1010600047D078280DD14DE0A1690B9888470546F7
:1010700025283FF469AFE1690B9888476D1C3FF460
:101080006AAFB4E023466A466FF001000B99FFF7A0
:101090009DF99FE045F040006060A80723464FF0AF
:1010A000000236D43EE0E8077FF447AF2068011D18
:1010B00021600068290501D506701BE7290701D5C5
:1010C000068017E7A90703D5F117C0E9006111E70A
:1010D00006600FE745F040006060A80723464FF028
:1010E000080216D41EE040F60E0125EA01006060F9
:1010F00016E045F040006060A80723464FF00A0262
:1011000007D40FE045F040006060A80708D52346EB
:1011100010226FF001000B99AFF300805AE007E056
:10112000234610226FF001000B99AFF3008051E0CD
:101130004FF000094F464B46632802D05B2807D08A
:1011400041E02079C00601D40120A06001273AE0E7
:1011500062690121019890475E2805D14FF001098D
:101160006269494601989047216939B900210A46C8
:10117000534643F82120491C0829FADBB0B3216902
:1011800069B9C11700EBD16253110AEB830122F058
:101190001F02821A01200B68904003430B606269B2
:1011A0000121019890475D28E8D1B9F1000F09D0DD
:1011B0000020514651F82020D24341F82020401C05
:1011C0000828F7DB02AB224600976FF001000B996D
:1011D000AFF3008000280CDA401C08D1BBF1000FEF
:1011E00005D04FF0FF300DB0BDE8F08FFFE740466F
:1011F000F9E7E90701D108F1010806444FF0000BB7
:1012000078E60000CCCCCC0C7F2801D9002208E085
:10121000064A02EB5002C007127800D1120902F010
:101220000F0201209040084070470000B46B000896
:10123000FEE770470148006870470000DC000020AE
:101240000148406870470000DC0000200020704723
:101250000020704710B53C21084800F0E1FE3C2119
:10126000074800F0DDFE054900200968486204498E
:101270000968486203490860486010BD200A0020E0
:10128000680A0020DC00002072B6054C4FF4FA75A5
:101290002021204600F0D5F9284600F0BFF8F7E7F6
:1012A0000008014010B590F821100022022905D055
:1012B0000421816380F82020012010BD01680B68A3
:1012C00023F00E030B6001680B6823F001030B6031
:1012D00090F84030C46B012101FA03F3636080F899
:1012E000211080F82020104610BD00002DE9F05F8D
:1012F00090F821100024022903D0042181630124E5
:1013000085E001680A6822F00E020A6001680A6836
:1013100022F001020A603F4E3E4FB215DFF8F4C0E2
:10132000DFF8F090DFF8ECA0DFF8E8B0DFF8E4E0F9
:101330000168783F13011502ACF1640CA9F1500962
:10134000AAF13C0AABF1280BAEF1140E4FF4801851
:10135000B14227D9B9420ED0614512D049451DD0BE
:10136000514518D0594518D0714501D1424615E074
:10137000294EB14201D1012210E0274E1436B1426C
:1013800001D110220AE0244E2836B14206D0224A6A
:101390003C32914201D11A4600E02A461E49091FFB
:1013A0000A602BE0B94213D0614517D0494522D0DD
:1013B00051451DD059451DD0714501D142461AE015
:1013C000B14202D14FF0807215E0134EB14201D10B
:1013D000012210E0104E1436B14201D110220AE071
:1013E0000D4E2836B14206D00B4A3C32914201D113
:1013F0001A4600E02A46074980394A60012180F8F0
:101400002110002180F82010416B01B1884720464F
:10141000BDE8F09F800002400804024070B5044619
:1014200000F01CF90546601C02D004480078044412
:1014300000F014F9401BA042FAD370BD64000020F4
:101440002DE9F84FDFF8C8910024A9F1040B2346D9
:101450000F2709F1040AABF1040ED1E00125A540E4
:1014600006EA0502AA4276D1DFF8A8C14E68A6EBCB
:101470000C0866452BD00DDC032E34D005DC36B3CA
:10148000012E19D0022E2FD11BE0112E16D0122EB4
:101490002AD119E0B8F5881F19D006DCB8F5803FCD
:1014A00015D0B8F5801F1FD111E0B8F5001F0ED080
:1014B000B8F5041F18D10AE0CB6815E0CB681B1DF6
:1014C00012E0CB6808330FE0CB680C330CE08B687C
:1014D0002BB1012B4FF0080303D0456104E0042336
:1014E00002E0056100E00023FF2A01D8064601E082
:1014F00000F104064FEA840501D9A5F12005D6F8CC
:10150000008007FA05FC28EA0C0803FA05F548EA0A
:101510000508C6F800804D68ED0070D53E4DAE69F7
:1015200046F00106AE61AD6924F0030605F0010541
:1015300000953A4D06EB050CDCF80850A607360F6F
:1015400007FA06F825EA0805DFF8D480404503D1FC
:101550004FF0000825E052E0DFF8C880404502D196
:101560004FF001081DE0DFF8C080404502D14FF088
:10157000020816E0DFF8B480404502D14FF00308BE
:101580000FE0DFF8AC80404502D14FF0040808E0DE
:10159000DFF8A080404502D14FF0050801E04FF090
:1015A000060808FA06F848EA0508CCF808804D68ED
:1015B000D9F80060ED024D4601D5164300E0964390
:1015C0002E604D68DAF80060AD02554601D516432D
:1015D00000E096432E604D68DBF80060AD035D4689
:1015E00001D5164300E096432E604D68DEF800609A
:1015F000ED03754601D5164300E096432E60641C4A
:101600000A681646E2407FF429AFBDE8F88F000073
:1016100008040140000011100010024000000140C9
:1016200000080140000C014000100140001401407E
:1016300000180140001C01408068084000D00120D3
:101640007047C26821EA02030A4043EA024101618D
:1016500070470AB1016170470904FBE701488068DF
:10166000704700006400002070B5040025D094F895
:101670003D00002520B984F83C50204600F04EF98A
:10168000242084F83D002068016821F001010160F8
:101690002068016841F4004101602068016821F47C
:1016A0000041016000F092FA4D4A6168914201D810
:1016B0004C4900E04C49884201D2012070BD4B49A1
:1016C0002368B0FBF1F15E6826F03F060E435E60D2
:1016D0006368934206D94FF4967359434FF47A7373
:1016E000B1FBF3F12368491C1E6A26F03F06314323
:1016F00019626168914210D84900401EB0FBF1F2B6
:10170000521CC2F30B02042A01D2042022E0B0FBD7
:10171000F1F0401CC0F30B001CE0A268F2B301EB37
:10172000C10303EB0116431EB3FBF6F35B1C43F44A
:1017300080431B0549D092B301EBC10202EB0111BA
:10174000401EB0FBF1F0401CC0F30B0040F48040A1
:1017500040F400402168CA694CF6FF739A43104375
:10176000C861D4E9071001432068026822F0C00272
:1017700011430160D4E9030101432068826848F203
:10178000FF339A4311438160D4E90501084321687E
:10179000CA6822F0FF021043C86001E00EE016E0C4
:1017A0002068016841F0010101602564202084F86F
:1017B0003D00256384F83E50002070BD01EB4106DA
:1017C000431EB3FBF6F35B1CB3E70120C2E701EB5A
:1017D0004101401EB0FBF1F0401CC0F30B00B7E725
:1017E000A086010080841E0000093D0040420F00D9
:1017F0002DE9F84F1F4690468A460446DDF82890AA
:10180000FFF72CFF054694F83D0020287FD11923CF
:10181000012240492046009501F02CF9002876D19C
:1018200094F83C00012872D0012084F83C00206824
:101830000168C90703D1016841F001010160206816
:10184000016821F400610160212084F83D0010202E
:1018500084F83E0000262664C4F824806785608DE5
:1018600020852D48E0622B464A465146204601F02D
:101870007BF890B9206841698069009036E02A467B
:101880004946204601F09CF950B1206C042804D14F
:101890002068016841F4007101600120BDE8F88F03
:1018A000606A216800780861606A401C6062618D2E
:1018B000491E6185218D491E89B22185226853699F
:1018C000DB435B070BD451B100781061606A401CA8
:1018D0006062608D401E6085208D401E20852A46F6
:1018E0004946204601F09AF80028CED1208D0028E4
:1018F000C5D154F83D0B016841F40071016020200E
:1019000004F81E09E67766770020C7E7FFE70220A4
:10191000C4E70000020010000000FFFF10B586B011
:101920000021009101910291039100680F498842C2
:101930001AD10F4CA06940F00800A061A069694667
:1019400000F008000490C0200090122001900320B5
:1019500003900848FFF774FDE06940F40010E0616F
:10196000E06900F40010049006B010BD005400407F
:1019700000100240000C01400248816802781144C6
:101980008160704764000020074810B5016841F08D
:1019900010010160032000F071F80F2000F006F83C
:1019A00000F024F8002010BD0020024070B50D4D5D
:1019B00004464FF47A712878B1FBF0F00A490968BF
:1019C000B1FBF0F000F0D8FA48B9102C07D2002291
:1019D0002146501E00F032F800206C6070BD0120DE
:1019E00070BD000064000020700000200B4882B031
:1019F000816941F001018161816901F0010100917A
:101A0000C16941F08051C161C069002200F080507D
:101A100000900F21901E02B000F010B8001002409C
:101A2000002809DB00F01F020121914040098000DD
:101A300000F1E020C0F8001170470000F0B40E4B38
:101A40001B680C46C3F30223C3F10705042D00D91C
:101A50000425191D072901D2002300E0DB1E012601
:101A600006FA05F1491E214099409E40761E164017
:101A70003143F0BC02F05DBA0CED00E0064900F025
:101A8000070208684FF6FF03184040EA0220034AA5
:101A900010430860704700000CED00E00000FA05FC
:101AA0002DE9F0470F46050061D0434E306800F045
:101AB0000700B84209D2306820F007003843306090
:101AC000306800F00700B84251D128683B4C8107CC
:101AD00012D5400703D5606840F4E0606060287864
:101AE000000703D5606840F4605060606068A968D2
:101AF00020F0F000084360602878C00728D06868AC
:101B0000012810D02168022810D0890700292EDA78
:101B1000616821F0030101436160FFF79FFD80468A
:101B200041F288390DE021688903EFE78901EDE78B
:101B3000FFF794FDA0EB0801494502D90320BDE859
:101B4000F0876068696800F00C00B0EB810FEFD19E
:101B5000306800F00700B8420BD9306820F0070069
:101B600038433060306800F00700B84201D00120EF
:101B7000E5E72878400705D56068E96820F4E0606B
:101B8000084360602878000706D56068296920F45A
:101B9000605040EAC100606000F038F86168084AAF
:101BA000C1F30311515CC84006490860064800684B
:101BB000FFF7FCFE0020C2E70020024000100240B8
:101BC0007A6B000870000020680000200448054976
:101BD00000684968044AC1F30221515CC84070475B
:101BE00070000020001002408A6B0008044805497C
:101BF00000684968044AC1F3C221515CC84070477B
:101C000070000020001002408A6B00080E4A5168E4
:101C10000E4801F00C03042B11D0082B0FD10C48F7
:101C2000C1F38343C903C05C0AD55168084AC1F3B4
:101C30004041921E515C054A5043B0FBF1F07047A1
:101C400004494843704700000010024000127A0027
:101C50006A6B000800093D002DE9F84F040070D0C0
:101C60002078C04DC00749D06868C0F381000128C2
:101C700007D06868C0F38100022809D16868C003F2
:101C800006D52868800339D560680028E7D035E09C
:101C90006068B0F5803F0BD010B1B0F5A02F11D027
:101CA000286820F480302860286820F4802002E032
:101CB000286840F480302860606890B1FFF7CEFC5F
:101CC00006460AE0286840F480202860F0E700BF5C
:101CD000FFF7C4FC801B642873D828688003F7D5FD
:101CE0000CE0FFF7BBFC064605E000BFFFF7B6FCC3
:101CF000801B6428F0D828688003F7D420789A4E97
:101D000080074FF001094FF0000839D5686810F0DE
:101D10000C0F07D06868C0F38100022809D16868F9
:101D2000C00306D42868800714D52069012808D18B
:101D300010E02069B0B1C6F80090FFF78FFC0746AD
:101D400005E00AE1FFF78AFCC01B0228C4D8286816
:101D50008007F7D52868616920F0F80040EAC100E3
:101D600028600DE0C6F80080FFF778FC074604E025
:101D7000FFF774FCC01B022823D828688007F7D41B
:101D8000207800072CD57948A169D9B1C0F8009016
:101D9000FFF764FC074604E0FFF760FCC01B022865
:101DA0000FD8686A8007F7D571484FF4FA51006878
:101DB000B0FBF1F0009000BF0098411E0091FAD2F4
:101DC0000EE080E0C0F80080FFF748FC074604E022
:101DD000FFF744FCC01B022875D8686A8007F7D457
:101DE0002078400760D5E8690027C00008D4E8697A
:101DF00040F08050E861E869012700F080500090D1
:101E00005C480168C90513D40168834641F48071B8
:101E10000160FFF723FC824606E000BFFFF71EFCCF
:101E2000A0EB0A0064284ED8DBF80000C005F5D509
:101E3000E06801280AD008B1052813D0286A20F0EC
:101E400001002862286A20F0040002E0286A40F0BD
:101E500001002862E06841F2883B98B1FFF7FEFB81
:101E600082460BE0286A40F004002862EEE700BFDB
:101E7000FFF7F4FBA0EB0A0159455AD8286A8007FE
:101E8000F6D50CE0FFF7EAFB824605E0FFF7E6FB3C
:101E9000A0EB0A0159454CD8286A8007F6D41FB137
:101EA000E86920F08050E861E06988B36968C1F3AF
:101EB0008101022944D00228C6F8608004D0FFF7CF
:101EC000CDFB044638E034E0FFF7C8FB074604E0EA
:101ED000FFF7C4FBC01B02282BD828688001F7D469
:101EE000206AB0F5803F05D16868A16820F4003011
:101EF00008436860D4E908010843696821F4741153
:101F000008436860C6F86090FFF7A8FB044606E047
:101F100025E000BFFFF7A2FB001B022809D82868B4
:101F20008001F7D51BE000BFFFF798FB001B0228DC
:101F300002D90320BDE8F88F28688001F4D40EE0B0
:101F40000128F7D06868226A00F48031914204D1F8
:101F5000616A00F47010884201D00120EAE7002095
:101F6000E8E70000001002400000424280044242C4
:101F7000700000200070004010B5401EB0F1807F5E
:101F800001D3012010BD4FF0E02460610F216017E4
:101F900001F0CFFF0020A06107202061002010BDCC
:101FA0007047704770B590F83C20012A2CD001246E
:101FB00080F83C40022280F83D2003685A689D6802
:101FC00022F070060A6832435A60104B02689A4247
:101FD0000ED00F4B9A420BD0B2F1804F08D00D4B70
:101FE0009A4205D00C4B9A4202D00C4B9A4204D133
:101FF000496825F080031943916080F83D40002135
:1020000080F83C10084670BD022070BD002C0140D5
:10201000003401400004004000080040000C004073
:1020200070B590F83E60044690F83F5090F842300A
:1020300090F84320022021B104290ED0012E1BD19B
:1020400014E0012E18D1012B16D184F83E0084F83B
:10205000420001220021206820E0012D0CD1012A3C
:102060000AD184F83F0084F8430014E0012D03D125
:10207000012B01D1012A01D0012070BD84F83E005E
:1020800084F83F0084F8420084F8430001220021D4
:10209000206801F0B5FB01220421206801F0B0FBAB
:1020A0002068016841F001010160002070BD7047A7
:1020B0002DE9F04104460068C66805694FF0000745
:1020C000A90713D5B10711D5F91E016101202077A9
:1020D000206880698007204602D0FFF7E8FF04E00F
:1020E00000F07EF8204600F05BF92777680716D5E8
:1020F000700714D521686FF0040008610220207772
:102100002068806910F4407F204602D0FFF7CFFF9F
:1021100004E000F065F8204600F042F92777280730
:1021200015D5300713D521686FF008000861042029
:1021300020772068C0698007204602D0FFF7B7FFEC
:1021400004E000F04DF8204600F02AF92777E80671
:1021500016D5F00614D521686FF01000086108202C
:1021600020772068C06910F4407F204602D0FFF736
:102170009EFF04E000F034F8204600F011F92777C4
:10218000E80708D0F00706D021686FF00100086169
:10219000204600F061F9280608D5300606D52168EA
:1021A0006FF0800008612046FFF7FAFE680608D548
:1021B000700606D521686FF040000861204600F0E7
:1021C00069F9A8060AD5B00608D521686FF0200085
:1021D00008612046BDE8F041FFF7E3BEBDE8F081AD
:1021E000704770B5044690F83C0000260D46012863
:1021F0000FD0012084F83C006AB1042A1DD0082ABF
:102200002FD00C2A3FD00126002084F83C00304615
:1022100070BD022070BD206801F000FB206881695C
:1022200041F0080181612068816921F00401816128
:10223000206881692A69114311E0206801F01EFBC2
:102240002068816941F4006181612068816921F41D
:1022500080618161206881692A6941EA0221816186
:10226000D2E7206801F040FB2068C16941F0080115
:10227000C1612068C16921F00401C1612068C169A0
:102280002A69114311E0206801F062FB2068C169EE
:1022900041F40061C1612068C16921F48061C161BC
:1022A0002068C1692A6941EA0221C161ACE710B521
:1022B000040003D094F83D0010B107E0012010BDE8
:1022C000002084F83C00204600F01EF8022084F82C
:1022D0003D00211D206801F045FA012084F84600E8
:1022E00084F83E0084F83F0084F8400084F8410000
:1022F00084F8420084F8430084F8440084F84500E0
:1023000084F83D00002010BD30B585B0002100915B
:102310000191029103911E4A01681E4891422AD1FF
:10232000C16941F00201C161C16901F0020104917A
:10233000816941F004018161816901F00401049126
:10234000816941F0080181618069022500F008007F
:102350000490C020CDE900050324694603940E488B
:10236000FFF76EF8CDE9004569460C480394FFF786
:1023700067F805B030BDB1F1804FFAD1C16941F0C5
:102380000101C161C06900F001000490F1E70000A3
:10239000000400400010024000080140000C014011
:1023A0007047000010B50446022249B104290ED03E
:1023B000082913D094F84100012816D0012010BD3F
:1023C00094F83E000128F9D184F83E200FE094F8FB
:1023D0003F000128F2D184F83F2008E094F8400043
:1023E0000128EBD184F8402001E084F8412001224B
:1023F000206801F005FA13492068134A884201D089
:10240000904203D1436C43F4004343642068884204
:102410000DD090420BD0B0F1804F08D00B498842CC
:1024200005D00B49884202D00A49884204D181680C
:1024300001F00701062903D0016841F001010160A4
:10244000002010BD002C0140003401400004004079
:1024500000080040000C004010B50446006809491F
:10246000884201D1FFF788FA07492068884207D1DE
:1024700006480078002803D005480168491C01601F
:1024800010BD000000100040002C01406000002042
:102490005C0000207047704770470000F8B5016885
:1024A00004460868CA684B6910F00F0F4FF000052A
:1024B00059D003F0010602F49077374365D0C10785
:1024C00005D0D10503D5616C41F00101616441077C
:1024D00005D5D90703D0616C41F002016164810721
:1024E00005D5D90703D0616C41F00401616401078F
:1024F00007D502F02001314303D0616C41F008019F
:102500006164616C00293AD0800604D5900602D53A
:10251000204601F074FA20684069616CC0F38010B5
:10252000090700D460B3204601F042FA20684069F0
:10253000400621D52068143050E8001F21F04001EA
:1025400040E80012002AF5D1E06BA8B16D49416363
:10255000E06BFEF7CBFE002811D0E06B416B01B0C1
:10256000BDE8F040084783060FD593060DD52046F9
:10257000BDE8F84001F043BA2046FFF78DFFF8BDF3
:102580002046FFF789FF6564F8BD266B2023012EE6
:102590007CD1C6067AD5D60678D5086848680090FA
:1025A00048694FF00206400640D5E16B0868406874
:1025B0000004000CE8D0A28D8242E5D9E08588694C
:1025C00020282DD020680C3050E8001F21F48071A5
:1025D00040E80012002AF5D12068143050E8001FAE
:1025E00021F0010140E80012002AF5D120681430E2
:1025F00050E8001F21F0400140E80012002AF5D108
:1026000084F84230256320680C3050E8001F21F028
:10261000100140E80012002AF5D1E06BFEF742FEFF
:102620006663A08DE18D401A81B22AE0A08DE18D14
:10263000401A81B2E08D0028A6D00029A4D02268DB
:102640000C3252E8000F20F4907042E80007002F8F
:10265000F5D12068143050E8002F22F0010240E844
:102660000027002FF5D184F84230256320680C3014
:1026700050E8002F22F0100240E80023002BF5D193
:1026800066632046FFF707FFF8BDFFE705062BD579
:10269000150629D594F841002128F5D1A068B0F598
:1026A000805F01D12069B0B1206A411C216221689C
:1026B00000784860E08C401E0004000CE084E3D108
:1026C0002068C16821F08001C1602068C16841F0C4
:1026D0004001C160D8E7206A0088C0F30800486064
:1026E000206A801C2062E5E74006CDD55006CBD598
:1026F000CA68204622F04002CA6084F8413000F0E7
:10270000FCF8C1E7A139000870B5040004D094F8C2
:102710004100002510B106E0012070BD84F8405052
:10272000204600F023F8242084F841002068C16886
:1027300021F40051C160204601F0C2F9206801690E
:1027400021F4904101612068416921F02A01416131
:102750002068C16841F40051C1606564202084F89C
:10276000410084F842006563002070BD70B586B0FA
:102770000024009401940294039403682B482A4E89
:10278000022103220515B34229D1836943F4804312
:102790008361836903F480430493836943F00403F2
:1027A00083618069224E00F0040004900802CDE9A4
:1027B0000001039269463046FEF742FECDE900541F
:1027C000694630460294FEF73BFE0322114625205F
:1027D000FFF734F92520FFF723F906B070BD154E39
:1027E000B342FAD1C36943F48023C361C36903F4DC
:1027F00080230493836943F0080383618069CDE9F2
:10280000005100F00800CDE903200B4D6946284631
:10281000FEF716FEE814CDE9000469462846029446
:10282000FEF70EFED9E7000000380140001002401C
:102830000008014000480040000C014090F8423080
:10284000202B01D00220704721B11AB1002303636D
:1028500001F092B90120704770472DE9F843044612
:1028600090F84100984616460D46202802D00220D6
:10287000BDE8F88385B17EB100206064212084F832
:102880004100FEF7EBFEA6848146E684A06820277F
:10289000B0F5805F02D003E00120E9E7206910B1C4
:1028A0002E4600250EE000260CE08021204601F097
:1028B0007EF9A8B9C6B116F8010B21684860E08C12
:1028C000401EE084E08C4B464FF00002CDF80080C3
:1028D0000028EAD14FF04001204601F068F940B1EC
:1028E00084F841700320C3E735F8020BC0F30800F9
:1028F000E3E784F841700020BAE77047FEE7000084
:1029000010B5044C2068002803D1012003F0DEFB41
:10291000206010BD0C01002001684A69D2435205B5
:102920000FD46FF480624A61002140F8301F2022EA
:1029300042738173026942F0040202610173012053
:102940007047002070470000064810B5006838B195
:1029500047F2305103F0B6FD012800D0002010BD31
:10296000012010BD0C010020F8B50446C06A1E46C7
:102970000D461746082807D0012805D010F5803FDE
:1029800002D0206B122804D12068016841F48071C4
:102990000160134600224FF001112046009600F01E
:1029A00069F840B120680068C00502D54FF4007096
:1029B00020640320F8BD2069B0F5804F0ED00620BA
:1029C000216800EAD51040F0F000086133463A462D
:1029D0000B49204600F096F878B902E005F0FE00B9
:1029E00000E0E8B221680861054933463A46891F8C
:1029F000204600F087F80028DCD00120F8BD000058
:102A00000800010004480068002804D000231A468A
:102A1000194603F00BBC70470C01002070B5164638
:102A20000D4604461EE02046FFF776FF08B1012060
:102A300070BD681C16D0FEF711FE801BA84200D89E
:102A400085B920684069C04340070BD5002044F891
:102A5000300F20216173A073216941F020012161B1
:102A60002073E4E720684069C0434007DBD40020BE
:102A700070BD00002DE9F047984617460D46044604
:102A8000C1F30746DDF820902AE000BFB8F1FF3F10
:102A900026D0FEF7E3FDA0EB0901414502D8B8F1CD
:102AA000000F1DD12068012E16D0806925EA000094
:102AB0000004000C12D00020B84211D1002044F8CC
:102AC000300F20216173A073216941F02001216141
:102AD00020730120BDE8F0874069E7E70120EBE7BC
:102AE0002068012E0AD0806925EA00000004000C4D
:102AF00006D00020B842C9D00020EBE74069F3E7D8
:102B00000120F7E72DE9F047984616460D460446A2
:102B10004FF000094FF0200AC1F3074723E0206877
:102B20004069C043400515D42068016841F4007134
:102B3000016021686FF480604861C4F8309084F8C7
:102B40003DA084F83E90216C41F00401216484F89A
:102B50003C9021E0701C06D0FEF780FDA0EB080041
:102B6000B04203D816B1012F1FD021E02068012FF9
:102B700015D0806925EA00000004000C18D000BFC1
:102B800044F8309F84F80DA084F80E90216941F03C
:102B90002001216184F80C900120BDE8F087406994
:102BA00025EA00000004000CEAD12068406901E039
:102BB0002068806925EA00000004000CAFD1ECE732
:102BC00070B516460D4604461EE02046FFF7A4FEEB
:102BD00008B1012070BD681C16D0FEF73FFD801BB8
:102BE000A84200D885B920684069C04300060BD5CB
:102BF000002044F8300F20216173A073216941F057
:102C0000200121612073E4E720684069C043000689
:102C1000DBD4002070BD00007CB516460C4605468E
:102C2000FFF792FE00281BD047F230508DF8044089
:102C300000908DF805606900022301AA0948FEF79B
:102C4000D7FD20B12246294607A001F03BF9FFF746
:102C5000D9FE03F085FD022802D1012003F028F8F7
:102C60007CBD0000840900204932435F57726974BB
:102C700065526567206661696C65643A20616464C9
:102C8000723D307825303258207265673D307825A6
:102C90003032580D0A000000FEB51C4615460E469F
:102CA0000746FFF751FE002823D08DF804608DF809
:102CB0000550280A8DF80600200A8DF8080047F212
:102CC000305000908DF807407900052301AA09488B
:102CD000FEF78EFD20B13246394607A001F0F2F82A
:102CE000FFF790FE03F03CFD022802D1012002F024
:102CF000DFFFFEBD840900204932435F57726974CB
:102D000065526567735F34206661696C65643A205B
:102D1000616464723D307825303258207265673DB9
:102D20003078253032580D0A000000002DE9F041BE
:102D30000122234F5603002431463846FEF789FC12
:102D4000B04600253E46BF146006040E01223946F7
:102D50003046FEF77EFC022001F00EFF4146304671
:102D6000FEF76AFC08B144F00104002239463046FF
:102D7000FEF76FFC022001F0FFFE6D1CEDB2082D86
:102D8000E2D30122454641463046FEF762FC02206E
:102D900001F0F2FE012239463046FEF75AFC0220CD
:102DA00001F0EAFE002239463046FEF752FC0122CD
:102DB00029463046FEF74DFC2046BDE8F081000074
:102DC000000C014070B501220E4D540321462846E7
:102DD000FEF73FFC0122160331462846FEF739FC78
:102DE000012001F0C9FE002221462846FEF731FCF1
:102DF000012001F0C1FE31462846BDE870400022A6
:102E0000FEF727BC000C014070B50D4D4FF4005487
:102E1000002221462846FEF71CFC01221103284609
:102E2000FEF717FC012001F0A7FE012221462846EB
:102E3000FEF70FFCBDE87040012001F09DBE0000D0
:102E4000000C01402DE9F0411E4F002405464FF4CF
:102E50000058BE14EA0941463846FEF7FAFB6806F8
:102E6000050E022001F088FE012231463846FEF7A9
:102E7000F0FB022001F080FE002231463846FEF7CA
:102E8000E8FB012001F078FE641CE4B2082CE1D3D9
:102E9000012241463846FEF7DCFB022001F06CFEC1
:102EA000012231463846FEF7D4FB022001F064FED1
:102EB000002231463846FEF7CCFBBDE8F041012048
:102EC00001F05ABE000C01402DE9F04107460C48C4
:102ED00016460A4601691D461046FDF7EBFB4FF00A
:102EE000FF31FDF757FC04463946FDF7E0FB306043
:102EF00020463946FDF786FB2860BDE8F0810000DA
:102F0000E4000020014B83E807007047F000002038
:102F10002DE9FF5F354E054698469146DDF838B0FD
:102F20007069FDF75CFD04462846FDF758FD214613
:102F3000FDF7F2FB2E4D2946FDF7BCFBF1688A46F2
:102F4000FDF7B8FB07460198FDF749FD2146FDF75F
:102F5000E3FB2946FDF7AEFB5146FDF7ABFB04460C
:102F600001463846FDF74EFB4FF0FF31FDF712FCEE
:102F7000054639462046FDF797FB3169FDF7CCFB46
:102F80000646DBF80000D9F80040D8F80070824609
:102F900001F034FD2946FDF78DFB2146FDF732FB9C
:102FA0000446504602F0AEFB2946FDF783FB394646
:102FB000FDF728FB054631465046FDF723FB0D4E35
:102FC0000B4F02E03146FDF76FFBB842FADC0A4FC7
:102FD000B84203D93146FDF715FBF9E7C9F80040BF
:102FE000C8F80050CBF80000BDE8FF9FE4000020C7
:102FF000DB0F4940DB0FC940DB0F49C000B587B08C
:103000000AA000F05FFF1C220E496846FDF70AF98E
:103010000021684602F04EF80B49086020B10BA071
:1030200000F050FF07B000BD10A0F9E74D757465C2
:103030007820637265617465207374617274210D08
:103040000A0000004C6B000850000020737973499F
:103050006E69745461736B2063726561746520736B
:10306000756363657373210D0A00000073797349FA
:103070006E69745461736B20637265617465206658
:1030800061696C6564210D0A00000000094808B5FB
:10309000816941F004018161816901F004010091BD
:1030A000816941F008018161806900F008000090A9
:1030B00008BD0000001002400D4810B50B4901602A
:1030C0000C49416000214FF480428160C0E9031245
:1030D00041618161C1610162FEF7C6FA002803D037
:1030E000BDE81040FEF7D0B810BD0000005400400D
:1030F00084090020A086010010B58AB0002407943E
:103100001C2168460894FDF7A6F820484FF080413E
:10311000C0E900144FF6FF71C0E902410461846107
:10312000FFF7C5F808B1FEF7AFF8079407A91748ED
:103130000894FEF737FF08B1FEF7A6F86020CDE946
:10314000000402940022694610480494FFF749F8ED
:1031500008B1FEF799F8042269460C48FFF741F8D8
:1031600008B1FEF791F8082269460848FFF739F8D8
:1031700008B1FEF789F80C2269460448FFF731F8D8
:10318000002801D0FEF780F80AB010BD200A002008
:1031900010B5374888B03549016047210024C0E99F
:1031A00001146321C0E9031480218161FFF77FF8D6
:1031B00008B1FEF769F81C216846FDF74CF860205D
:1031C000CDE9000402940022694629480494FFF7DF
:1031D00008F808B1FEF758F8042269462448FFF7BA
:1031E00000F808B1FEF750F8082269462048FEF7BB
:1031F000F8FF08B1FEF748F80C2269461C48FEF7B4
:10320000F0FF08B1FEF740F8002269461848FEF7C3
:10321000E8FF08B1FEF738F8042269461448FEF7C3
:10322000E0FF08B1FEF730F8082269461048FEF7C3
:10323000D8FF08B1FEF728F80C2269460C48FEF7C3
:10324000D0FF08B1FEF720F800210948FFF7AAF8DF
:1032500004210748FFF7A6F808210548FFF7A2F860
:103260000C210348FFF79EF808B010BD0004004091
:10327000680A002010B50E4C0C480C2120604FF459
:10328000E13060600020A060E060C4E90401A0615A
:10329000E0612046FFF738FA08B1FDF7F5FF206836
:1032A000C16841F02001C16010BD0000003801403C
:1032B000780B002030B585B0224800250295C16901
:1032C00041F48021C161C16901F4802104918169C7
:1032D00041F00801816180691B4C00F008000490F6
:1032E0004FF4806000900220019003200390694613
:1032F0002046FEF7A5F8E014CDE900056946204612
:103300000295FEF79DF8124C104820604FF4E13012
:10331000C4E901050C20E560C4E90450A56120461C
:10332000E561FFF7F1F92068C16841F02001C16053
:10333000012211462720FEF781FB2720FEF770FBB4
:1033400005B030BD00100240000C014000480040B4
:10335000C00B0020FEE7000010B5012211030B484E
:10336000FEF777F900210A48FFF71CF80421084806
:10337000FFF718F808210648FFF714F80C21044855
:10338000FFF710F8BDE8104000F049B8000C01400C
:10339000680A002010B5002801DA414200E0014629
:1033A0008AB2642A00D964220749002400280B68E5
:1033B00005DD5A6309688C630449088010BD5C63AD
:1033C000F8DA09688A63F7E7680A0020FC00002041
:1033D00010B5002801DA414200E001468AB2642AB1
:1033E00000D964220749002400280B6805DDDA6350
:1033F00009680C640449488010BDDC63F8DA096888
:103400000A64F7E7680A0020FC00002010B50C46AB
:10341000FFF7C0FF2046BDE81040FFF7D9BF0021ED
:103420000846FFF7F3BFFEE770B5642001F0D4FD56
:10343000AE2000F061F8D52000F05EF8802000F0AA
:103440005BF8A82000F058F83F2000F055F8D32092
:1034500000F052F8002000F04FF8402000F04CF847
:103460008D2000F049F8142000F046F8202000F0EC
:1034700043F8002000F040F8A12000F03DF8C820FB
:1034800000F03AF8DA2000F037F8122000F034F8B3
:10349000812000F031F8CF2000F02EF8D92000F084
:1034A0002BF8F12000F028F8DB2000F025F8302080
:1034B00000F022F8A42000F01FF8A62000F01CF86D
:1034C000AF2000F019F8002404F1B000C0B200F001
:1034D00013F8002000F010F8102000F00DF800257F
:1034E000002000F01DF86D1CEDB2802DF8D3641C97
:1034F000E4B2082CE8D370BD1CB5002101918DF811
:10350000050064200090022301AA78210348FEF7F9
:103510006FF90A2001F030FB1CBD00008409002077
:103520001CB508A10223096801918DF805006420EB
:10353000009001AA78210448FEF75AF90A2001F008
:103540001BFB1CBD400000008409002010B5044690
:1035500017488022002104702046FFF75DFB0A20F7
:1035600001F03AFD102200212046FFF755FB012013
:1035700001F032FD7922FE212046FFF74DFB0120AC
:1035800001F02AFDA02200212046FFF745FB012083
:1035900001F022FD042201212046FFF73DFB01201E
:1035A00001F01AFD2146BDE8104002A000F08ABCDF
:1035B000000100205043413936383520496E697486
:1035C000204F4B2028616464723D3078253032589A
:1035D000290D0A002DE9F04104461046FDF764F874
:1035E00001462061A069FDF70DF8A061216AFDF791
:1035F00057FA01D2206AA061D4E90601FDF746FA24
:1036000001D2E069A061D4E904512846FDF74CF8E5
:10361000A168FDF74FF80646A1696068FDF74AF812
:10362000074629462068FDF745F83946FCF7EAFFCA
:103630003146FCF7E7FF65610646216AFDF730FA7F
:1036400000D2266AE1693046FDF720FA00D2E66929
:103650003046BDE8F08130B5DDE903450EC00021FC
:1036600040F80C1B40F8081C40F8041C80E83200AD
:1036700030BD000010B50021084600F015F84FF4E9
:10368000FA7001F0A9FCBDE8104001A000F01ABCDE
:1036900053473930204368616E6E656C3020496E47
:1036A0006974204F4B0D0A00B42900D9B4214FF49E
:1036B0007A725143B422B1FBF2F101F57A71090437
:1036C000090944F62062B1FBF2F18BB2062101EB4D
:1036D0008000C1B2024800220078FFF7DDBA000086
:1036E0000001002010B5FEF747F903F039F8012872
:1036F00003D0BDE8104002F0D3BC10BD30B58FB090
:1037000028216846FCF7A7FD14210AA8FCF7A3FDB1
:1037100001210804CDE9001000240294022504913F
:10372000CDE907504FF4E01009906846FEF794FA8F
:1037300060B90F20CDE90A056802CDE90C400221ED
:103740000AA80E94FEF7ACF9002801D0FDF79CFD05
:103750000FB030BD704700000148FEF7A9BC000063
:10376000D8090020F0B50268204C214D214E224F8F
:10377000224B4FF0804CA04209D0984207D06045C0
:1037800005D0A84203D0B04201D0B84204D122F003
:10379000700E4A6842EA0E02A04209D0984207D051
:1037A000604505D0A84203D0B04201D0B84203D151
:1037B00022F44075CA682A434D6922F080022A43E8
:1037C00002608A68C2620A688262A04201D098429E
:1037D00001D109690163012141610169C90703D070
:1037E000016921F001010161F0BD0000002C0140E0
:1037F0000004004000080040000C0040003401407C
:1038000010B501F01F030121046A99408C43046242
:10381000016A9A401143016210BD0000F0B5036ACD
:10382000026A22F00102026242688469124E24F0A8
:1038300073050C682C4323F002058B682B430D4D58
:10384000A84201D0B04205D123F00807CB683B4322
:1038500023F00403A84201D0B04205D14D6922F4FF
:10386000407215438A692A43426084614968416312
:103870000362F0BD002C014000340140F0B5026A43
:10388000036A23F010030362436884690D6824F41B
:10389000E64444EA05248D6822F0200242EA05123B
:1038A0000F4D104EA84201D0B04206D1CF6822F091
:1038B000800242EA071222F04002A84201D0B04240
:1038C00007D14D6923F4406343EA85038D6943EAD8
:1038D000850343608461496881630262F0BD000032
:1038E000002C014000340140F0B5026A036A23F461
:1038F000807303624368C46922F4007224F0730584
:103900000C68124E2C438D6842EA05220E4DA842E7
:1039100001D0B04206D1CF6822F4006242EA072209
:1039200022F48062A84201D0B04207D14D6923F44D
:10393000405343EA05138D6943EA05134360C461AC
:103940004968C1630262F0BD002C014000340140AF
:1039500030B5046A026A22F4805202624268C36986
:103960000D6823F4E64343EA05238D6824F40054EC
:1039700044EA0534084DA84202D0084DA84204D1BB
:103980004D6922F4804242EA85124260C36149686F
:103990000164046230BD0000002C0140003401408D
:1039A00010B5406A0021C185C184FEF775FD10BDC8
:1039B00001680C3151E8002F22F4907241E8002395
:1039C000002BF5D10168143151E8002F22F00102DB
:1039D00041E80023002BF5D1016B012909D10168D1
:1039E0000C3151E8002F22F0100241E80023002B97
:1039F000F5D1202180F8421000210163704708B5FD
:103A000090F84210222901D0022008BD82684FF4AC
:103A100080539A4201D1016921B1816A9A421BD037
:103A20004AB10AE00268816A5268C2F308020A8059
:103A3000816A891C08E0026972B10268526802F06A
:103A40007F020A70816A491C8162C18D491E090486
:103A5000090CC18503D01BE002685268F1E70168D8
:103A6000CA6822F02002CA600168CA6822F4807223
:103A7000CA6001684A6922F001024A61202180F887
:103A8000421000214163026B012A03D0FEF7E4FEDD
:103A9000002008BD016301680C3151E8002F22F0BD
:103AA000100241E80023002BF5D101680A68D20614
:103AB00002D50A6849680091818DFEF7ECFCE7E7C2
:103AC00070B5044600680169E26821F44051114371
:103AD00001612169A0680843616908432168CA68D7
:103AE00041F20C639A430243CA6020684169A269AB
:103AF00021F44071114341611E492068884202D17E
:103B0000FEF774F801E0FEF761F800EBC00101EB8D
:103B10000012606864218000B2FBF0F3B3FBF1F3A4
:103B20006FF018067343B2FBF0F5B2FBF0F605EB4D
:103B30008305322303EB0515B5FBF1F5B6FBF1F672
:103B400005F0F00505EB0615B2FBF0F6B2FBF0F060
:103B5000B0FBF1F06FF01802504306EB800003EB6E
:103B60000010B0FBF1F0216800F00F0028448860DD
:103B700070BD00000038014081628285C28500214D
:103B80004164222180F84210016921B10168CA68AC
:103B900042F48072CA6001684A6942F001024A61D7
:103BA0000068C16841F02001C160002070472DE924
:103BB000F843984617460D460446089E24E0701CBC
:103BC00022D0FDF74BFDA0EB0800B0421AD8CEB1D1
:103BD0002068C168490717D5802D15D0402D13D016
:103BE0000168C94309070FD40168002540680090A7
:103BF0002046FFF7DDFE0820606484F84050012075
:103C0000BDE8F8830320FBE72068006835EA000080
:103C100004D00020B842D2D00020F1E70120F9E71B
:103C2000154830B400680068C04380061CD41348AF
:103C30000068C2B2124801880B0415D44C044FF03E
:103C4000000304D50A2A0ED141F4004112E00D2AE6
:103C50000ED0C1F30D04084D491CC83D89B22A5548
:103C60000180C72900D9038030BC0348FEF716BC89
:103C700041F480410180F7E7780B002004380140CF
:103C800062000020044800210122416001700349C4
:103C90000348FEF7D3BD000004010020F84C0020CB
:103CA000C00B00200D4830B402681068C043800685
:103CB0000FD40B4800680B49C3B248687F2803D271
:103CC000094C2354401C4860012008706FF020000C
:103CD000106030BC0148FEF7E1BB0000C00B0020C3
:103CE0000448004004010020F84C002001B5642382
:103CF000012269460148FEF7B0FD08BDC00B002057
:103D000010B5044603E000BFFFF7F0FF641C207805
:103D10000028F9D110BDFEE738B5254C002210214E
:103D20002046FDF796FC6420FDF778FB0122102168
:103D30002046FDF78EFC4FF4FA70FDF76FFB6946E5
:103D4000002000F08FF808B11AA02EE09DF80010B6
:103D5000EE2903D01DA000F0B5F838BD23A000F077
:103D6000B1F80121802000F097F80121FF2000F038
:103D700093F80021084600F08FF80021FF2000F0A2
:103D80008BF80021802000F087F80221012000F04C
:103D900083F80021022000F07FF80121072000F0C5
:103DA0007BF86420FDF73AFB16A000F08BF838BDD5
:103DB00000100140564C35334C305820436F6D6D28
:103DC000204572726F72210D0A000000564C353387
:103DD0004C3058204944204572726F722120526540
:103DE00061643D3078253032580D0A00564C353329
:103DF0004C3058204944204F4B3A203078253032FF
:103E0000580D0A00564C35334C305820496E6974B1
:103E10002046696E697368210D0A00000EB502A97B
:103E2000002000F01FF8D8B99DF8080000F0070046
:103E3000042815D101A9132000F014F880B96946AF
:103E4000122000F00FF858B99DF804009DF80010FA
:103E500040F2BD7240EA0120A0F11401914200D36A
:103E600000200EBD70B50C00054613D0FEF7AAFF6A
:103E70005220FEF7E7FF2846FEF7E4FFFEF7A2FF19
:103E80005320FEF7DFFFFEF751FF2070FEF7BCFF67
:103E9000002070BD012070BD70B50D460446FEF7D0
:103EA00091FF5220FEF7CEFF2046FEF7CBFF2846BB
:103EB000FEF7C8FFFEF7A8FFBDE870400A2000F03B
:103EC0005BBE00000FB4054B10B503A9044A02986D
:103ED00000F0E0F910BC5DF814FB0000E14C0008B4
:103EE000100100200FB4084B10B504A902AA0398D2
:103EF00000F0D0F9044602A9002000F04EFD204653
:103F000010BC5DF814FB00009B490008410008024A
:103F100018BF04200A0E18BF40F001004FF07F4286
:103F200032EA010108BF40F00200012808BF052065
:103F300070470907090E002804DB00F1E02080F833
:103F40000014704700F00F0000F1E02080F8141D0D
:103F500070470121FCF71EBC00210846FCF7DCBBC2
:103F60006FF05E010807FCF715BC00002DE9F04D6D
:103F70000D4614464FF07F41B1EB440F9EBF4FF00A
:103F8000FF312960BDE8F08D4FF0004040EA042188
:103F9000C4F3C750783810F01F024A4B4FEA601C38
:103FA000C2F120067B44C4F3C750A0F178004FEA69
:103FB000601003EB800053F82C3008BFD0E901C635
:103FC00012D0D0F804C093402CFA06F73B43876820
:103FD0000CFA02FC27FA06F8C06807FA02F2F04071
:103FE0004CEA080C42EA0006A3FB0132ACFB01C01C
:103FF000A6FB016101EB0C068E4234BF4FF0010CB1
:104000004FF0000CC1186144BCF1000F02D0814296
:1040100002D903E0814201D2012000E000201044D7
:1040200000F120024FEA92188006CA0C40EA4230A2
:104030004F03C5F80080FCF7D2FC82463846FCF7F7
:10404000D7FC6FF01201FCF7A5FB07463046FCF7E2
:10405000CFFC6FF02501FCF79DFB834639465046A7
:10406000FCF7D0FA5946FCF7CDFA00F500666FF37D
:104070000B0651463046FCF717FB3946FCF714FB9C
:104080005946FCF714FB1049FCF714FB07460F498F
:104090003046FCF70FFB3946FCF7B4FA07460C49EB
:1040A0003046FCF707FB3946FCF7ACFA14F0004F3A
:1040B00008BFBDE8F08DC8F1805180F00040296054
:1040C000BDE8F08DEC2B0000DB0FC92F22AAFD29E3
:1040D0000000C92F02E008C8121F08C1002AFAD147
:1040E00070477047002001E001C1121F002AFBD178
:1040F000704700000149086070470000140100206B
:104100002DE9FF5F82B00021DDE90430020DDDF80A
:1041100040B0034318D044F61050A2F2FF3242439D
:104120001514119801281FD0A5EB0B00401C5FEA65
:10413000000A4FF000064E4FDFF83891B046504667
:1041400015D5CAF1000413E0119801244AA30128EF
:1041500001D16FEA0B010298119AC0E90031C0E960
:10416000024206B0BDE8F09FCBF10000DFE7044655
:104170000021404A491842EB0450CDE9001012E0FA
:10418000E00707D032463B4640464946FCF7B5FBC0
:104190008046894632463B4610461946FCF7ADFB41
:1041A00006460F466410002CEAD1DDE90401DDE982
:1041B0000023BAF1000F06DAFCF79FFB42464B469C
:1041C000FCF79BFB05E0FCF7C3FD42464B46FCF7C2
:1041D000BFFD04460E460022284BFCF74DFE03D8D7
:1041E0004FF0FF30014607E00022254B20463146C4
:1041F000FCF7DCFAFCF727FE102409E0002C0ADBB0
:104200000A220023FCF76CFC039B30321A55641E13
:1042100050EA0102F2D1641C039AC4F11103144460
:10422000119A012A03D0012208430DD10AE0084364
:1042300004D000204FF0110B119072E7A3EB0B0597
:104240006D1E0DE05B4504DD4FF0000205F1010538
:1042500004E003DA4FF00002A5F10105002AECD0DA
:1042600002981199C0E90231C0E9004579E70000E0
:10427000000014400000F03F300000000000F04358
:104280000000E03F30380A2801D2012070470020AA
:10429000704700002DE9FF4F95B09A4688460646C4
:1042A0000025EEE1252877D100242746F94A01218F
:1042B000039400E0044316F8013F203B01FA03F0A9
:1042C0001042F7D130782A2811D06FF02F033078C0
:1042D000A0F13002092A16D8039A44F0020402EB36
:1042E000820203EB42021044761C0390EFE758F879
:1042F000042B0392002A03DA504244F40054039042
:1043000044F00204761C30782E2816D116F8010FDE
:1043100044F004042A280DD06FF02F023078A0F169
:104320003003092B09D807EB870302EB4303C718B7
:10433000761CF3E758F8047B761C30786C280FD095
:1043400006DC4C2817D068280DD06A2814D104E068
:10435000742810D07A280FD10DE044F400140AE03C
:1043600044F4801401E044F440147278824202D193
:1043700004F58014761C761C307866280BD013DC8C
:10438000582877D009DC002875D04528F6D0462873
:10439000F4D047281AD193E118E0632835D0642877
:1043A00079D0652812D18BE1702873D008DC67289A
:1043B000F1D069286FD06E280DD06F2806D1ACE0FF
:1043C00073282CD0752874D0782853D0524617996A
:1043D00090476D1C54E1C4F30250022809D0032811
:1043E0000DD0D8F8001004280DD00D6008F1040895
:1043F00046E1D8F80010EA17C1E90052F6E7D8F80C
:1044000000100D80F2E70D70F0E718F8041B8DF82E
:10441000001000208DF80100EB46012003E058F861
:1044200004BB4FF0FF3061074FF0000102D40DE0F4
:1044300009F101018946B9420FDA8145F8DB1BF821
:1044400009100029F4D108E009F1010189468142EF
:10445000FADB1BF809100029F6D103985346A0EBAC
:10446000090721463846179A00F080FA284400EBE5
:10447000090507E044E008E10DE01BF8010B524696
:1044800017999047B9F10109F7D2534621463846AA
:10449000179AF2E039E00A21C4F302524FF0000B00
:1044A0000091022A06D058F8040BC117032A09D03C
:1044B0000AE023E008F1070020F00702F2E8020119
:1044C000904605E000B2C117042A01D140B2C117DD
:1044D000002906DA0A460021404261EB02012D2242
:1044E00002E0220504D52B228DF80420012203E0EE
:1044F000E20701D02022F7E7914657E00A2100E0C9
:1045000010214FF0000B00910BE010214FF0000B39
:1045100044F004040827009103E008204FF0000B4A
:104520000090C4F30252022A05D058F8040B00216F
:10453000032A08D008E008F1070020F00702F2E89B
:104540000201904603E080B2042A00D1C0B24FF0CD
:10455000000922072AD53278702A07D0DDF800C07A
:104560008CF0100C5CEA0B0C05D00EE040228DF8AC
:104570000420012208E050EA010306D030238DF820
:1045800004308DF8052002229146009B83F0080339
:1045900053EA0B030AD150EA010201D1620705D5A3
:1045A00030228DF804204FF001097F1E3278582AFE
:1045B00004D039A20C920CAA02920BE03BA2F9E7BC
:1045C0005B46009AFCF78CFA0C9B9B5C029A521E8D
:1045D0000292137050EA0102F2D1029804A9081A5B
:1045E00000F1200B600702D524F4803400E001279D
:1045F0005F4502DDA7EB0B0000E0002000EB0B01A4
:10460000009003984944401A0390E00306D45346AF
:104610002146179A039800F0A9F90544002706E0FF
:1046200001A85246C05D179990476D1C7F1C4F45ED
:10463000F6DBE0030CD553462146179A039800F0A9
:1046400095F9054404E030205246179990476D1CB7
:104650000099481E00900029F5DC08E002980299B4
:1046600052460078491C0291179990476D1CBBF186
:104670000001ABF1010BF1DC5BE100F065F90544F1
:10468000761C307800287FF40DAE19B02846BDE8BE
:10469000F08F0000092801003031323334353637CD
:1046A000383961626364656600000000303132337E
:1046B000343536373839414243444546000000001E
:1046C000600700D4062708F1070020F00700F0E893
:1046D0000223804603F0004C5FEA0C0001D097A053
:1046E00009E0200501D596A005E0E00701D095A0DE
:1046F00001E0AFF24C001390307823F000436528BE
:104700000CD006DC452809D046281DD047287FD18B
:104710003BE0662818D067287AD136E00021112FB7
:1047200001DB112000E0781CCDE9000104A90CA8F0
:10473000FFF7E6FCDDE90D010C9A4FF0000B07F1E5
:104740000109109200914EE04FF000400097CDE932
:10475000011004A90CA8FFF7D3FCDDE90D020C9BA6
:104760000F994FF0000B91461093009211B9791CEC
:1047700000EB0109B7EB090003D4C0F1FF3B07F1DF
:104780000109A9EB0700019042E0012F00DA01279F
:104790000021112F01DD112000E03846CDE9000194
:1047A00004A90CA8FFF7ACFCDDE90D010C9A0091FF
:1047B0004FF0000BB946109221070FD4009A4A45DA
:1047C00003DA914601E0A9F10109B9F1010F05DD14
:1047D000109AA9F10101515C3029F4D0B84202DAF3
:1047E00010F1040F03DA0121CDE9011010E00028D7
:1047F00003DC8344A9EB000102E0411C494500DDD4
:104800008946A0EB0B00401C01904FF00040029045
:10481000200705D40198484502DB4FF0FF30019096
:1048200000208DF84B0002980DF14B07B0F1004FBE
:1048300025D002200C902B200D90029800280CDA35
:10484000404202902D200D9007E00A210298FCF7CB
:1048500031F93031029007F8011D0C99481E0C9077
:104860000029F2DC02980028EFD1791E0D9808701B
:10487000307800F0200040F0450007F8020D11A844
:10488000C01BC01D02901398007800B1012000EBFE
:104890000901019801EBE071029801440398401A64
:1048A000401E0390E00306D453462146179A03980E
:1048B00000F05CF805441398007818B15246179937
:1048C00090476D1CE00323D553462146179A039861
:1048D00000F04CF805441BE0BBF1000F07DB00982B
:1048E000584504DD1098179910F80B0001E017994E
:1048F00030205246904701980BF1010B401E05F104
:104900000105019004D12E205246179990476D1C45
:10491000B9F10001A9F10109DEDC05E017F8010B8E
:104920005246179990476D1C0299481E0290002923
:10493000F4DC53462146179A03989EE62D000000AA
:104940002B000000200000002DE9F0410446002566
:104950001E461746880404D405E039462020B04797
:104960006D1C641EF9D52846BDE8F0812DE9F041A3
:10497000044600251E469046C80301D5302700E0B6
:104980002027880404D505E041463846B0476D1C11
:10499000641EF9D52846BDE8F0810A68531C0B60F7
:1049A000107070471CB5114CDFF84480114D002782
:1049B0004FF4FA66304600F00FFB207890B1B8F85B
:1049C00000006A4681B20C4800F0E8F80098094BF4
:1049D0006860019910331A1FA960FEF775FA2770F5
:1049E000FFF750F9304600F0F7FAE3E70401002042
:1049F0000801002000000020F84C00202DE9F843B9
:104A0000044602464F486946B0EB420F09D94FF0C1
:104A1000E640B0EB420F94BF00204FF0FF30009013
:104A200030E0494B22F00040834271D9474920468B
:104A3000FBF740FEFCF711F98046FBF7DEFF00F0C4
:104A40000300009042494046FBF734FE05464149C9
:104A50004046FBF72FFE06463F494046FBF72AFE3D
:104A600007463E494046FBF725FE2146FBF71FFE61
:104A70003946FBF719FE3146FBF716FE2946FBF7D0
:104A800013FE04462546009C002C45DB294614F005
:104A9000010F08461CD0FBF70DFE06463049FBF718
:104AA00009FE3049FBF703FE3146FBF703FE2E49B2
:104AB000FBF7A8FD3146FBF7FDFD2946FBF7FAFDA4
:104AC0002946FBF79FFD14F0020F1CD0BDE8F883C8
:104AD000FBF7F0FD05462549FBF7ECFD2449FBF704
:104AE00091FD2946FBF7E6FD2249FBF78BFD2946A0
:104AF000FBF7E0FD4FF07E51FBF784FD14F0020F51
:104B000008BFBDE8F88380F00040BDE8F883FFE708
:104B10001046FFF72BFAB4E76800B0F17F4F3CBFB7
:104B20004FF07E50BDE8F88307D14FF00100FFF74A
:104B3000E1FABDE8F843FFF70FBA2846BDE8F843AD
:104B4000FFF707BAB61F927E490E494683F9223F06
:104B50001A61342C0020A23300A0FD390000C93FA7
:104B6000336D4C39DA82083CA0AA2ABEB93AB2BAEF
:104B7000CA9F2A3DDDFFFFBE0549064A0968B1FB11
:104B8000F2F141430520B1FBF0F0401EFDD2704729
:104B90007000002040420F00704700001CB5144612
:104BA00001AB6A4604A1FBF761FB022803D1009820
:104BB0002060019860601CBD434D4420256620257F
:104BC000660000002DE9F04F0446C9B00069FBF70C
:104BD0002DFF83460091E068FBF728FF81468A4657
:104BE000A068FBF723FF074688466068FBF71EFFB7
:104BF00005460E462068FBF719FF0B460099024652
:104C0000CDE906B18DE8E00704A108A8FFF76AF92D
:104C100008A8FFF775F849B0BDE8F08F4F444F4D35
:104C200020252E326620252E326620252E32662043
:104C3000252E326620252E32660A00002DE9F0432B
:104C4000A3B005461FA102A8FFF74CF902A8FFF781
:104C500057F8012000F0C0F9DFF8708000244FF011
:104C60008049686950F82400404501DC404602E074
:104C7000484500DD4846FBF7D9FE06460F4620466C
:104C8000FBF7ADFEFBF7D2FE02460B4610A102A8D1
:104C9000CDE90067FFF726F902A8FFF731F80120F8
:104CA00000F09AF9641C782CDBDB0CA102A8FFF75A
:104CB00019F902A8FFF724F8012000F08DF923B0BC
:104CC000BDE8F0835343414E000000000AD7A33CE7
:104CD00020252E316620252E326600000A000000B5
:104CE00004490A681206FCD5024AC1B2121D1160BD
:104CF0007047000000380140EFF30580002800D025
:104D00000120704708B501F039FD009000F006F869
:104D10001421684600F0F2FFF8E700002DE9F041A9
:104D2000FFF77CF8FBF764FE2349FBF7F5FC234C07
:104D30002063FBF77BFE02460B4621A0FFF7C2F87B
:104D40004FF0FF31606D00F083F9214A6069216BFB
:104D5000772642F82010B421484390FBF6F0C1B208
:104D6000A069012500284FF4F0774FF0000015D01E
:104D7000FEF79AFC6069401E6061002809DC002093
:104D800060611349A0613A4601F5F070FBF74AFAF9
:104D90002570606DBDE8F04100F032B9FEF784FC8B
:104DA0006069401C60617828F3DB0949C4E9056546
:104DB0003A4601F5F070E9E700007A44000000206F
:104DC00064697374203D202566206D6D0D0A000016
:104DD00018010020FCF7D8FDFEF790FCFEF756F90D
:104DE000FEF76AF9FEF788F9FEF7D2F9FEF742FA04
:104DF000FEF760FA12A0FFF765F81AA0FFF762F855
:104E0000FEF7AAFA1FA0FFF75DF8FCF723FA21A02E
:104E1000FFF758F8FEF7F2F823A0FFF753F800F079
:104E2000E2F8264C0025207830B12570244925A0D1
:104E3000FFF748F8FEF726FF642000F0CDF8F2E710
:104E40000D0A3D3D3D3D3D2053595354454D2049AC
:104E50004E4954205354415254203D3D3D3D3D0D5B
:104E60000A0000000D0A3D3D3D3D3D20535953547D
:104E7000454D205245414459203D3D3D3D3D0D0AA3
:104E8000000000004D6F746F7220496E6974204FEE
:104E90004B0D0A00456E636F64657220496E69743C
:104EA000204F4B0D0A0000006F734B65726E656CEE
:104EB0005374617274200D0A000000000401002088
:104EC000F84C002045535038323636205265637610
:104ED0003A2025730D0A000001460020842900D0E5
:104EE000C81C704708B501F049FC254FDFF89490C5
:104EF000DFF89480254C00903221684600F0FEFED9
:104F0000FCF7A4F90646FCF7A3F90546314620480C
:104F1000E268FEF75FFBA0621D4829462430226943
:104F2000FEF758FBE062A26A4946A2F500028A42F7
:104F300000D2A762A26A02F1FF428A4201D2C4F8FB
:104F40002880A0F50000884200D2E762E06A00F104
:104F5000FF40484501D2C4F82C8000F09DFDE06A76
:104F6000FBF74BFD05B2A06AFBF747FD00B22946EF
:104F7000FEF74CFA5A210846FEF748FABCE7000053
:104F80000000A041000020410000A0C1000000205E
:104F9000B806002008B501F0F1FB0D4C0D4D4FF0A7
:104FA000FF3600903221684600F0A8FE3146A06D21
:104FB00000F04EF8E0692860206A6860606AA860C6
:104FC000A06D00F01DF80348FFF7FCFDEAE70000C4
:104FD000000000200007002010B500B9012000F0FB
:104FE00067FE002010BD10B500F09AFF002010BD34
:104FF00041684FF0010009B101F073B801F066B8E3
:1050000038B5002405460094FFF776FE90B1694656
:10501000284601F0BBF9012801D0FF2038BD0098D7
:1050200088B10A494FF080500860BFF34F8FBFF33B
:105030006F8F08E000231A461946284601F0F6F85B
:10504000012800D0FF24204638BD000004ED00E018
:1050500038B505004FF0000000900FD00024481C28
:105060000ED001B10C46FFF747FEB8B16A460021E9
:10507000284601F0D9F9012816D104E0802038BD76
:105080004FF0FF34EFE7009880B109494FF08050AE
:105090000860BFF34F8FBFF36F8F07E021462846AC
:1050A00001F010FA012801D0FF2038BD002038BDE2
:1050B00004ED00E07FB50D4604464169B0F90800F3
:1050C00081B1A16971B1FFF707FFD4E905128DE83D
:1050D0000700D4E900102B46226901F016FB03906B
:1050E00004B070BDFFF7F8FE03A9CDE90001208AE6
:1050F0002B4682B2D4E9001001F0DAFA012801D07F
:105100000020EDE70398EBE710B500F03DFE00202E
:1051100010BD00002DE9F041184C0F460546E66829
:105120002068001D00F0D2FC38B9206890F82C10DF
:1051300001208840216981432161681C07D137B172
:105140002168BDE8F0410E48091D00F003BD20684C
:105150003544B5424560216805D2A06BBDE8F041F9
:10516000091D00F0DFBC606B091D00F0DBFCA06ACC
:10517000854200D2A562BDE8F081000074000020E5
:10518000E40C00202DE9F041054600F0EFFC2E4C28
:10519000A068401CA06020682C4F10B1606940B32B
:1051A0002DE02560A068012829D1002606EB8600A5
:1051B00007EB800000F0A8FC761C072EF6D32348EE
:1051C0008C3000F0A1FC2148A03000F09DFC1F486D
:1051D000B43000F099FC1D48C83000F095FC1B4825
:1051E000DC3000F091FC19488C3060631430A0630F
:1051F00005E02068E96AC06A884200D82560606AD4
:10520000401C6062E96A01202269884010432061E5
:1052100001EB810007EB8000291D00F09BFC00F0F2
:10522000C5FC606900280CD02068E96AC06A884221
:1052300007D207494FF080500860BFF34F8FBFF38C
:105240006F8FBDE8F081000074000020080C002082
:1052500004ED00E030B4026C0B46002A0BD0C168AC
:105260001144C1608468A14201D30168C16030BCAF
:105270001846FAF7D7BF30BC70472DE9F041856B6F
:10528000174604460026026C82B1C7B1E068FAF7FF
:10529000C9FFE168206C091AE1602268914202D2DC
:1052A000A168081AE060022F16D017E02068A8B99C
:1052B000A06801F0CFFA06460020A0600EE060680A
:1052C000FAF7B0FF216C606808446060A16888420A
:1052D00004D32068606001E005B16D1E6D1CA563FC
:1052E0003046BDE8F08110B5044690F8510058B141
:1052F00001280CD002280FD0502080F31188BFF372
:105300004F8FBFF36F8FFEE7206B00F063FC2046EA
:10531000BDE8104000F05EBC10BD000010484FF426
:105320008041420706D0C01D0D4920F00700411AF8
:10533000C1F580410B4A00230144C2E9000308394A
:10534000183A21F0070111604B600B600B1AC0E99D
:10535000001393604FF000405360506170470000AD
:10536000F80C0020C8000020144E154CA6F1C80708
:105370004FF08058DFF84C9012E000BF00F0F6FBD1
:10538000F068C568281D00F0A1FBA068401EA06061
:105390006068401E606000F009FC2846FFF7A3FF2C
:1053A00060680028EAD138680128F9D9C9F8008076
:1053B000BFF34F8FBFF36F8FF2E70000D00C0020D8
:1053C0007400002004ED00E0002807D00021816077
:1053D00001600B460A46C16000F028BF70470346D3
:1053E000009829B10260C0E90F31012100F0DABE56
:1053F0000060F8E72DE9F0479A46DDE90984814627
:105400006FF00303206B03EB82021044089E20F030
:105410000707780707D0502080F31188BFF34F8F1C
:10542000BFF36F8FFEE7002561B1002023180A5CEF
:1054300083F834200A5C12B1401C1028F6D384F89B
:10544000435001E084F83450072E00D30626E6626C
:10545000C4E91165201D00F062FB04F1180000F0A2
:105460005EFB2461C6F107006462A061E56484F814
:10547000505052464946384600F010F92060B8F1C5
:10548000000F01D0C8F80040BDE8F08730B51149E1
:1054900000E011460A688242FBD34B685C188442E4
:1054A00003D1406818444860084643681C18944279
:1054B00009D1084C183C2468A24209D052681A4409
:1054C00042600A6812680260814200D0086030BD04
:1054D0000460F9E7C800002010B5044600F046FB60
:1054E000A06B28B15FF0000400F060FB204610BD07
:1054F0000124F9E70648416B096829B1416BC96885
:10550000C9684968816270474FF0FF31FAE70000CF
:105510007400002008484068401C4FF0500080F3A1
:10552000118804D0BFF34F8FBFF36F8FFEE7BFF337
:105530004F8FBFF36F8FFEE7D00000202DE9F041C1
:10554000044600F013FB94F9455004F1240609E0E9
:10555000606A48B1304601F00FFA08B100F072FC01
:105560006D1E6DB2002DF3DC4FF0FF3684F8456000
:1055700000F01CFB00F0FAFA94F9445004F1100713
:1055800009E0206948B1384601F0F6F908B100F0A9
:1055900059FC6D1E6DB2002DF3DC84F84460BDE84B
:1055A000F04100F003BB00002DE9F0410546002763
:1055B00000F0ECFC324E306808B9FFF7AFFE7069BE
:1055C00005424ED1C5B3083568070ED005F0070077
:1055D000C0F108000544680707D0502080F3118807
:1055E000BFF34F8FBFF36F8FFEE72DB37068854217
:1055F00037D82348183001460C6801E020460C4695
:105600006168A94202D221680029F7D131688C4231
:1056100027D007682168016060680837411B10299E
:105620000FD96019420708D0502080F31188BFF3CA
:105630004F8FBFF36F8FFEE713E041606560FFF7A8
:1056400025FF61687068401A7060B268904200D2AD
:10565000B060706901430020C4E90001F068401C9B
:10566000F06001F0C3F9780707D0502080F311886B
:10567000BFF34F8FBFF36F8FFEE73846BDE8F08171
:10568000B00000200449086818B10868826C521CF8
:1056900082640868704700007400002010B5031F82
:1056A0004FF080741C601B1F21F001011960191F4D
:1056B000024B0B60143940380A6010BD15550008C4
:1056C00000250D4C6E1E4FF4F077207880B13146E6
:1056D000606DFFF7BDFC09493A4601F5F070FAF735
:1056E000A1FD606DFFF78CFC0548FFF7A7FA257058
:1056F0000A20FFF771FCE8E700000020F802002014
:10570000140700202DE9F843044602465248694632
:10571000B0EB420F09D94FF0E640B0EB420F94BF17
:1057200000204FF0FF30009030E04C4B22F0004062
:10573000834271D94A492046FAF7BCFFFBF78DFA3C
:105740008046FBF75AF900F00300009045494046B7
:10575000FAF7B0FF054644494046FAF7ABFF064664
:1057600042494046FAF7A6FF074641494046FAF744
:10577000A1FF2146FAF79BFF3946FAF795FF31461C
:10578000FAF792FF2946FAF78FFF04462546009C58
:10579000002C45DB294614F0010F08461ED0FAF70D
:1057A00089FF05463349FAF785FF3349FAF72AFF9F
:1057B0002946FAF77FFF3149FAF724FF2946FAF71D
:1057C00079FF4FF07E51FAF71DFF14F0020F08BF6A
:1057D000BDE8F88380F00040BDE8F883FAF76AFF7F
:1057E00006462749FAF766FF2649FAF760FF314671
:1057F000FAF760FF2449FAF705FF3146FAF75AFF36
:105800002946FAF757FF2946FAF7FCFE14F0020F73
:10581000E0D1BDE8F883FFE71046FEF7A7FBB4E749
:105820006800B0F17F4F09D22846FEF76FFB0428CD
:1058300008BFFEF795FB2846BDE8F88306D1012096
:10584000FEF758FCBDE8F843FEF786BB2846BDE8E6
:10585000F843FEF77EBB0000B61F927E490E494614
:1058600083F9223F1A61342C0020A23300A0FD39B5
:105870000000C93FB93AB2BACA9F2A3DDDFFFFBE58
:10588000336D4C39DA82083CA0AA2ABE2DE9F041DA
:10589000A6B04CA0FEF716FB0520FFF79DFB524873
:1058A000FFF7A6FB514C60654F480830FFF7A0FB9F
:1058B000A065FDF725F8FEF72FFA4DA0FEF702FBD5
:1058C000FDF7B2FD4FA0FEF7FDFA4020FDF73EFECA
:1058D000FDF7D0FEFFF760F94EA0FEF7F3FA40F2B5
:1058E000967251495148FDF70DFB514D514E524FA3
:1058F000DFF84881CDE9006500233A46414650482B
:10590000FDF7A9FE4E48CDE9006500233A46414621
:105910002430FDF7A0FE4A494A485C310022C1E923
:105920000020494888604948C86040070861A1F5DF
:105930000F70486178200883E26045A02261FEF77D
:10594000C1FA29491C22103102A8FAF76BFC002188
:1059500002A8FFF7AFFB2449E0641C222C3109A800
:10596000FAF760FC002109A8FFF7A4FB1E49206498
:105970001C22483110A8FAF755FC002110A8FFF7A7
:1059800099FB194960641C22643117A8FAF74AFC94
:10599000002117A8FFF78EFB1349A0641C22803159
:1059A0001EA8FAF73FFC00211EA8FFF783FBE06367
:1059B00031A0FEF787FA206DFFF7A6FB26B0BDE801
:1059C000F08100000D0A3D3D3D3D3D2048415244DF
:1059D0005741524520494E49542053544152542076
:1059E0003D3D3D3D3D0D0A00B06A0008000000202D
:1059F000564C35334C305820496E6974204F4B0D4E
:105A00000A0000004F4C454420496E6974204F4BFA
:105A10000D0A0000466173742D524F5320496E6980
:105A200074204F4B0D0A00003333333EB81E853DC2
:105A30000000C8420000C8C20000FA4200401C44F6
:105A4000B8060020920A064035FA8E3C0AD7A33CDD
:105A50000D0A3D3D3D3D3D20414C4C2048415244C6
:105A60005741524520494E4954204F4B203D3D3D22
:105A70003D3D0D0A000000003D3D3D3D3D20414CB7
:105A80004C205441534B53204352454154454420EC
:105A90003D3D3D3D3D0D0A00F8B5FBF7CBFB05460E
:105AA000FBF7CEFB064608480090A0F1240404F161
:105AB0002003A06B1A1F311A606B281AFDF728FA11
:105AC000C4E90D56F8BD000024000020D0E90132E1
:105AD00001699A60D0E901235A604A68824201D183
